{
  "contractName": "MyToken",
  "abi": [
    {
      "inputs": [],
      "stateMutability": "nonpayable",
      "type": "constructor"
    },
    {
      "anonymous": false,
      "inputs": [
        {
          "indexed": true,
          "internalType": "address",
          "name": "owner",
          "type": "address"
        },
        {
          "indexed": true,
          "internalType": "address",
          "name": "spender",
          "type": "address"
        },
        {
          "indexed": false,
          "internalType": "uint256",
          "name": "value",
          "type": "uint256"
        }
      ],
      "name": "Approval",
      "type": "event"
    },
    {
      "anonymous": false,
      "inputs": [
        {
          "indexed": true,
          "internalType": "address",
          "name": "_owner",
          "type": "address"
        },
        {
          "indexed": true,
          "internalType": "address",
          "name": "_spender",
          "type": "address"
        },
        {
          "indexed": false,
          "internalType": "uint256",
          "name": "_amount",
          "type": "uint256"
        }
      ],
      "name": "CustomApproval",
      "type": "event"
    },
    {
      "anonymous": false,
      "inputs": [
        {
          "indexed": true,
          "internalType": "address",
          "name": "_from",
          "type": "address"
        },
        {
          "indexed": true,
          "internalType": "address",
          "name": "_to",
          "type": "address"
        },
        {
          "indexed": false,
          "internalType": "uint256",
          "name": "_amount",
          "type": "uint256"
        }
      ],
      "name": "CustomTransfer",
      "type": "event"
    },
    {
      "anonymous": false,
      "inputs": [
        {
          "indexed": true,
          "internalType": "address",
          "name": "from",
          "type": "address"
        },
        {
          "indexed": true,
          "internalType": "address",
          "name": "to",
          "type": "address"
        },
        {
          "indexed": false,
          "internalType": "uint256",
          "name": "value",
          "type": "uint256"
        }
      ],
      "name": "Transfer",
      "type": "event"
    },
    {
      "inputs": [],
      "name": "allocate_token",
      "outputs": [
        {
          "internalType": "uint256",
          "name": "",
          "type": "uint256"
        }
      ],
      "stateMutability": "view",
      "type": "function",
      "constant": true
    },
    {
      "inputs": [
        {
          "internalType": "address",
          "name": "owner",
          "type": "address"
        },
        {
          "internalType": "address",
          "name": "spender",
          "type": "address"
        }
      ],
      "name": "allowance",
      "outputs": [
        {
          "internalType": "uint256",
          "name": "",
          "type": "uint256"
        }
      ],
      "stateMutability": "view",
      "type": "function",
      "constant": true
    },
    {
      "inputs": [
        {
          "internalType": "address",
          "name": "",
          "type": "address"
        },
        {
          "internalType": "address",
          "name": "",
          "type": "address"
        }
      ],
      "name": "allowances",
      "outputs": [
        {
          "internalType": "uint256",
          "name": "",
          "type": "uint256"
        }
      ],
      "stateMutability": "view",
      "type": "function",
      "constant": true
    },
    {
      "inputs": [
        {
          "internalType": "address",
          "name": "account",
          "type": "address"
        }
      ],
      "name": "balanceOf",
      "outputs": [
        {
          "internalType": "uint256",
          "name": "",
          "type": "uint256"
        }
      ],
      "stateMutability": "view",
      "type": "function",
      "constant": true
    },
    {
      "inputs": [
        {
          "internalType": "address",
          "name": "",
          "type": "address"
        }
      ],
      "name": "balances",
      "outputs": [
        {
          "internalType": "uint256",
          "name": "",
          "type": "uint256"
        }
      ],
      "stateMutability": "view",
      "type": "function",
      "constant": true
    },
    {
      "inputs": [
        {
          "internalType": "address",
          "name": "spender",
          "type": "address"
        },
        {
          "internalType": "uint256",
          "name": "subtractedValue",
          "type": "uint256"
        }
      ],
      "name": "decreaseAllowance",
      "outputs": [
        {
          "internalType": "bool",
          "name": "",
          "type": "bool"
        }
      ],
      "stateMutability": "nonpayable",
      "type": "function"
    },
    {
      "inputs": [
        {
          "internalType": "address",
          "name": "spender",
          "type": "address"
        },
        {
          "internalType": "uint256",
          "name": "addedValue",
          "type": "uint256"
        }
      ],
      "name": "increaseAllowance",
      "outputs": [
        {
          "internalType": "bool",
          "name": "",
          "type": "bool"
        }
      ],
      "stateMutability": "nonpayable",
      "type": "function"
    },
    {
      "inputs": [],
      "name": "name",
      "outputs": [
        {
          "internalType": "string",
          "name": "",
          "type": "string"
        }
      ],
      "stateMutability": "view",
      "type": "function",
      "constant": true
    },
    {
      "inputs": [],
      "name": "symbol",
      "outputs": [
        {
          "internalType": "string",
          "name": "",
          "type": "string"
        }
      ],
      "stateMutability": "view",
      "type": "function",
      "constant": true
    },
    {
      "inputs": [],
      "name": "totalSupply",
      "outputs": [
        {
          "internalType": "uint256",
          "name": "",
          "type": "uint256"
        }
      ],
      "stateMutability": "view",
      "type": "function",
      "constant": true
    },
    {
      "inputs": [],
      "name": "decimals",
      "outputs": [
        {
          "internalType": "uint8",
          "name": "",
          "type": "uint8"
        }
      ],
      "stateMutability": "view",
      "type": "function",
      "constant": true
    },
    {
      "inputs": [
        {
          "internalType": "address",
          "name": "_recipient",
          "type": "address"
        },
        {
          "internalType": "uint256",
          "name": "_amount",
          "type": "uint256"
        }
      ],
      "name": "transfer",
      "outputs": [
        {
          "internalType": "bool",
          "name": "success",
          "type": "bool"
        }
      ],
      "stateMutability": "nonpayable",
      "type": "function"
    },
    {
      "inputs": [
        {
          "internalType": "address",
          "name": "_sender",
          "type": "address"
        },
        {
          "internalType": "address",
          "name": "_recipient",
          "type": "address"
        },
        {
          "internalType": "uint256",
          "name": "_amount",
          "type": "uint256"
        }
      ],
      "name": "transferFrom",
      "outputs": [
        {
          "internalType": "bool",
          "name": "success",
          "type": "bool"
        }
      ],
      "stateMutability": "nonpayable",
      "type": "function"
    },
    {
      "inputs": [
        {
          "internalType": "address",
          "name": "_spender",
          "type": "address"
        },
        {
          "internalType": "uint256",
          "name": "_amount",
          "type": "uint256"
        }
      ],
      "name": "approve",
      "outputs": [
        {
          "internalType": "bool",
          "name": "success",
          "type": "bool"
        }
      ],
      "stateMutability": "nonpayable",
      "type": "function"
    }
  ],
  "bytecode": "0x608060405260058060006101000a81548160ff021916908360ff160217905550620f42406006553480156200003357600080fd5b506040518060400160405280600a81526020017f4461766964546f6b656e000000000000000000000000000000000000000000008152506040518060400160405280600381526020017f44544e00000000000000000000000000000000000000000000000000000000008152508160039080519060200190620000b892919062000258565b508060049080519060200190620000d192919062000258565b505050620000e833600654620000ee60201b60201c565b620004b4565b600073ffffffffffffffffffffffffffffffffffffffff168273ffffffffffffffffffffffffffffffffffffffff16141562000161576040517f08c379a0000000000000000000000000000000000000000000000000000000008152600401620001589062000340565b60405180910390fd5b62000175600083836200025360201b60201c565b806002600082825462000189919062000390565b92505081905550806000808473ffffffffffffffffffffffffffffffffffffffff1673ffffffffffffffffffffffffffffffffffffffff1681526020019081526020016000206000828254620001e0919062000390565b925050819055508173ffffffffffffffffffffffffffffffffffffffff16600073ffffffffffffffffffffffffffffffffffffffff167fddf252ad1be2c89b69c2b068fc378daa952ba7f163c4a11628f55a4df523b3ef8360405162000247919062000362565b60405180910390a35050565b505050565b8280546200026690620003f7565b90600052602060002090601f0160209004810192826200028a5760008555620002d6565b82601f10620002a557805160ff1916838001178555620002d6565b82800160010185558215620002d6579182015b82811115620002d5578251825591602001919060010190620002b8565b5b509050620002e59190620002e9565b5090565b5b8082111562000304576000816000905550600101620002ea565b5090565b600062000317601f836200037f565b915062000324826200048b565b602082019050919050565b6200033a81620003ed565b82525050565b600060208201905081810360008301526200035b8162000308565b9050919050565b60006020820190506200037960008301846200032f565b92915050565b600082825260208201905092915050565b60006200039d82620003ed565b9150620003aa83620003ed565b9250827fffffffffffffffffffffffffffffffffffffffffffffffffffffffffffffffff03821115620003e257620003e16200042d565b5b828201905092915050565b6000819050919050565b600060028204905060018216806200041057607f821691505b602082108114156200042757620004266200045c565b5b50919050565b7f4e487b7100000000000000000000000000000000000000000000000000000000600052601160045260246000fd5b7f4e487b7100000000000000000000000000000000000000000000000000000000600052602260045260246000fd5b7f45524332303a206d696e7420746f20746865207a65726f206164647265737300600082015250565b61150080620004c46000396000f3fe608060405234801561001057600080fd5b50600436106100ea5760003560e01c806355b6ed5c1161008c578063a457c2d711610066578063a457c2d714610287578063a9059cbb146102b7578063c4f390dc146102e7578063dd62ed3e14610305576100ea565b806355b6ed5c1461020957806370a082311461023957806395d89b4114610269576100ea565b806323b872dd116100c857806323b872dd1461015b57806327e235e31461018b578063313ce567146101bb57806339509351146101d9576100ea565b806306fdde03146100ef578063095ea7b31461010d57806318160ddd1461013d575b600080fd5b6100f7610335565b6040516101049190611096565b60405180910390f35b61012760048036038101906101229190610f2a565b6103c7565b604051610134919061107b565b60405180910390f35b6101456104b9565b6040516101529190611158565b60405180910390f35b61017560048036038101906101709190610edb565b6104c3565b604051610182919061107b565b60405180910390f35b6101a560048036038101906101a09190610e76565b61077f565b6040516101b29190611158565b60405180910390f35b6101c3610797565b6040516101d09190611173565b60405180910390f35b6101f360048036038101906101ee9190610f2a565b6107ae565b604051610200919061107b565b60405180910390f35b610223600480360381019061021e9190610e9f565b61085a565b6040516102309190611158565b60405180910390f35b610253600480360381019061024e9190610e76565b61087f565b6040516102609190611158565b60405180910390f35b6102716108c7565b60405161027e9190611096565b60405180910390f35b6102a1600480360381019061029c9190610f2a565b610959565b6040516102ae919061107b565b60405180910390f35b6102d160048036038101906102cc9190610f2a565b610a4d565b6040516102de919061107b565b60405180910390f35b6102ef610bec565b6040516102fc9190611158565b60405180910390f35b61031f600480360381019061031a9190610e9f565b610bf2565b60405161032c9190611158565b60405180910390f35b606060038054610344906112bc565b80601f0160208091040260200160405190810160405280929190818152602001828054610370906112bc565b80156103bd5780601f10610392576101008083540402835291602001916103bd565b820191906000526020600020905b8154815290600101906020018083116103a057829003601f168201915b5050505050905090565b600081600860003373ffffffffffffffffffffffffffffffffffffffff1673ffffffffffffffffffffffffffffffffffffffff16815260200190815260200160002060008573ffffffffffffffffffffffffffffffffffffffff1673ffffffffffffffffffffffffffffffffffffffff168152602001908152602001600020819055508273ffffffffffffffffffffffffffffffffffffffff163373ffffffffffffffffffffffffffffffffffffffff167fa5b63270bc30dbece5a3561130b09ca66d4c9a98b85da30bb24181c102ee584d846040516104a79190611158565b60405180910390a36001905092915050565b6000600254905090565b600081600760008673ffffffffffffffffffffffffffffffffffffffff1673ffffffffffffffffffffffffffffffffffffffff168152602001908152602001600020541015610547576040517f08c379a000000000000000000000000000000000000000000000000000000000815260040161053e906110d8565b60405180910390fd5b600860008573ffffffffffffffffffffffffffffffffffffffff1673ffffffffffffffffffffffffffffffffffffffff16815260200190815260200160002060003373ffffffffffffffffffffffffffffffffffffffff1673ffffffffffffffffffffffffffffffffffffffff168152602001908152602001600020548211156105d057600080fd5b81600760008673ffffffffffffffffffffffffffffffffffffffff1673ffffffffffffffffffffffffffffffffffffffff168152602001908152602001600020600082825461061f9190611200565b9250508190555081600760008573ffffffffffffffffffffffffffffffffffffffff1673ffffffffffffffffffffffffffffffffffffffff168152602001908152602001600020600082825461067591906111aa565b9250508190555081600860008673ffffffffffffffffffffffffffffffffffffffff1673ffffffffffffffffffffffffffffffffffffffff16815260200190815260200160002060003373ffffffffffffffffffffffffffffffffffffffff1673ffffffffffffffffffffffffffffffffffffffff16815260200190815260200160002060008282546107089190611200565b925050819055508273ffffffffffffffffffffffffffffffffffffffff168473ffffffffffffffffffffffffffffffffffffffff167fe5e0aab7feb98b539542ebe6f8ae203f58e3ca9648e12808e9298825debc15be8460405161076c9190611158565b60405180910390a3600190509392505050565b60076020528060005260406000206000915090505481565b6000600560009054906101000a900460ff16905090565b60006108506107bb610c79565b8484600160006107c9610c79565b73ffffffffffffffffffffffffffffffffffffffff1673ffffffffffffffffffffffffffffffffffffffff16815260200190815260200160002060008873ffffffffffffffffffffffffffffffffffffffff1673ffffffffffffffffffffffffffffffffffffffff1681526020019081526020016000205461084b91906111aa565b610c81565b6001905092915050565b6008602052816000526040600020602052806000526040600020600091509150505481565b60008060008373ffffffffffffffffffffffffffffffffffffffff1673ffffffffffffffffffffffffffffffffffffffff168152602001908152602001600020549050919050565b6060600480546108d6906112bc565b80601f0160208091040260200160405190810160405280929190818152602001828054610902906112bc565b801561094f5780601f106109245761010080835404028352916020019161094f565b820191906000526020600020905b81548152906001019060200180831161093257829003601f168201915b5050505050905090565b60008060016000610968610c79565b73ffffffffffffffffffffffffffffffffffffffff1673ffffffffffffffffffffffffffffffffffffffff16815260200190815260200160002060008573ffffffffffffffffffffffffffffffffffffffff1673ffffffffffffffffffffffffffffffffffffffff16815260200190815260200160002054905082811015610a25576040517f08c379a0000000000000000000000000000000000000000000000000000000008152600401610a1c90611138565b60405180910390fd5b610a42610a30610c79565b858584610a3d9190611200565b610c81565b600191505092915050565b600081600760003373ffffffffffffffffffffffffffffffffffffffff1673ffffffffffffffffffffffffffffffffffffffff168152602001908152602001600020541015610ad1576040517f08c379a0000000000000000000000000000000000000000000000000000000008152600401610ac890611118565b60405180910390fd5b81600760003373ffffffffffffffffffffffffffffffffffffffff1673ffffffffffffffffffffffffffffffffffffffff1681526020019081526020016000206000828254610b209190611200565b9250508190555081600760008573ffffffffffffffffffffffffffffffffffffffff1673ffffffffffffffffffffffffffffffffffffffff1681526020019081526020016000206000828254610b7691906111aa565b925050819055508273ffffffffffffffffffffffffffffffffffffffff163373ffffffffffffffffffffffffffffffffffffffff167fddf252ad1be2c89b69c2b068fc378daa952ba7f163c4a11628f55a4df523b3ef84604051610bda9190611158565b60405180910390a36001905092915050565b60065481565b6000600160008473ffffffffffffffffffffffffffffffffffffffff1673ffffffffffffffffffffffffffffffffffffffff16815260200190815260200160002060008373ffffffffffffffffffffffffffffffffffffffff1673ffffffffffffffffffffffffffffffffffffffff16815260200190815260200160002054905092915050565b600033905090565b600073ffffffffffffffffffffffffffffffffffffffff168373ffffffffffffffffffffffffffffffffffffffff161415610cf1576040517f08c379a0000000000000000000000000000000000000000000000000000000008152600401610ce8906110f8565b60405180910390fd5b600073ffffffffffffffffffffffffffffffffffffffff168273ffffffffffffffffffffffffffffffffffffffff161415610d61576040517f08c379a0000000000000000000000000000000000000000000000000000000008152600401610d58906110b8565b60405180910390fd5b80600160008573ffffffffffffffffffffffffffffffffffffffff1673ffffffffffffffffffffffffffffffffffffffff16815260200190815260200160002060008473ffffffffffffffffffffffffffffffffffffffff1673ffffffffffffffffffffffffffffffffffffffff168152602001908152602001600020819055508173ffffffffffffffffffffffffffffffffffffffff168373ffffffffffffffffffffffffffffffffffffffff167f8c5be1e5ebec7d5bd14f71427d1e84f3dd0314c0f7b2291e5b200ac8c7c3b92583604051610e3f9190611158565b60405180910390a3505050565b600081359050610e5b8161149c565b92915050565b600081359050610e70816114b3565b92915050565b600060208284031215610e8857600080fd5b6000610e9684828501610e4c565b91505092915050565b60008060408385031215610eb257600080fd5b6000610ec085828601610e4c565b9250506020610ed185828601610e4c565b9150509250929050565b600080600060608486031215610ef057600080fd5b6000610efe86828701610e4c565b9350506020610f0f86828701610e4c565b9250506040610f2086828701610e61565b9150509250925092565b60008060408385031215610f3d57600080fd5b6000610f4b85828601610e4c565b9250506020610f5c85828601610e61565b9150509250929050565b610f6f81611246565b82525050565b6000610f808261118e565b610f8a8185611199565b9350610f9a818560208601611289565b610fa38161134c565b840191505092915050565b6000610fbb602283611199565b9150610fc68261135d565b604082019050919050565b6000610fde601f83611199565b9150610fe9826113ac565b602082019050919050565b6000611001602483611199565b915061100c826113d5565b604082019050919050565b6000611024601d83611199565b915061102f82611424565b602082019050919050565b6000611047602583611199565b91506110528261144d565b604082019050919050565b61106681611272565b82525050565b6110758161127c565b82525050565b60006020820190506110906000830184610f66565b92915050565b600060208201905081810360008301526110b08184610f75565b905092915050565b600060208201905081810360008301526110d181610fae565b9050919050565b600060208201905081810360008301526110f181610fd1565b9050919050565b6000602082019050818103600083015261111181610ff4565b9050919050565b6000602082019050818103600083015261113181611017565b9050919050565b600060208201905081810360008301526111518161103a565b9050919050565b600060208201905061116d600083018461105d565b92915050565b6000602082019050611188600083018461106c565b92915050565b600081519050919050565b600082825260208201905092915050565b60006111b582611272565b91506111c083611272565b9250827fffffffffffffffffffffffffffffffffffffffffffffffffffffffffffffffff038211156111f5576111f46112ee565b5b828201905092915050565b600061120b82611272565b915061121683611272565b925082821015611229576112286112ee565b5b828203905092915050565b600061123f82611252565b9050919050565b60008115159050919050565b600073ffffffffffffffffffffffffffffffffffffffff82169050919050565b6000819050919050565b600060ff82169050919050565b60005b838110156112a757808201518184015260208101905061128c565b838111156112b6576000848401525b50505050565b600060028204905060018216806112d457607f821691505b602082108114156112e8576112e761131d565b5b50919050565b7f4e487b7100000000000000000000000000000000000000000000000000000000600052601160045260246000fd5b7f4e487b7100000000000000000000000000000000000000000000000000000000600052602260045260246000fd5b6000601f19601f8301169050919050565b7f45524332303a20617070726f766520746f20746865207a65726f20616464726560008201527f7373000000000000000000000000000000000000000000000000000000000000602082015250565b7f496e73756666696369656e7420616d6f756e742066726f6d2073656e64657200600082015250565b7f45524332303a20617070726f76652066726f6d20746865207a65726f2061646460008201527f7265737300000000000000000000000000000000000000000000000000000000602082015250565b7f496e7375666669656e7420616d6f756e742066726f6d2073656e646572000000600082015250565b7f45524332303a2064656372656173656420616c6c6f77616e63652062656c6f7760008201527f207a65726f000000000000000000000000000000000000000000000000000000602082015250565b6114a581611234565b81146114b057600080fd5b50565b6114bc81611272565b81146114c757600080fd5b5056fea2646970667358221220cf86c180a2bd8e2f56cb7cb81606e46b0d09b48523d600e0a91974ca14758b3164736f6c63430008020033",
  "immutableReferences": {},
  "source": "// SPDX-License-Identifier: MIT\npragma solidity >=0.4.22 <0.9.0;\n\nimport \"@openzeppelin/contracts/token/ERC20/ERC20.sol\";\nimport \"@openzeppelin/contracts/token/ERC20/IERC20.sol\";\n\n\n\ncontract MyToken is ERC20 {\n    uint8 private _decimal = 5;\n    uint256 public allocate_token = 1000000;\n\n    event CustomTransfer (\n        address indexed _from,\n        address indexed _to,\n        uint256 _amount\n    );\n\n    event CustomApproval(\n        address indexed _owner,\n        address indexed _spender,\n        uint256 _amount\n    );\n    mapping(address => uint256) public  balances;\n    mapping(address => mapping(address => uint256)) public  allowances;\n\n    constructor() ERC20 (\"DavidToken\", \"DTN\") {\n        _mint(msg.sender, allocate_token);\n    }   \n    function decimals() override public view returns (uint8) {\n        return _decimal;\n    }\n    function transfer(address _recipient, uint256 _amount) public override returns (bool success) {\n        require(balances[msg.sender] >= _amount, \"Insuffient amount from sender\");\n        balances[msg.sender] -= _amount;\n        balances[_recipient] += _amount;\n        Transfer(msg.sender, _recipient, _amount);\n        return true;\n    }\n    function transferFrom(address _sender, address _recipient, uint256 _amount) public override returns (bool success) {\n        require(balances[_sender] >=  _amount, \"Insufficient amount from sender\");\n        // this specify the amount entitled to spend\n        require(_amount <= allowances[_sender][msg.sender]);\n        balances[_sender] -= _amount;\n        balances[_recipient] += _amount;\n        allowances[_sender][msg.sender] -= _amount;\n        CustomTransfer(_sender, _recipient, _amount);\n        return true;\n    }\n    function approve(address _spender, uint256 _amount) public override returns (bool success){\n        allowances[msg.sender][_spender] = _amount;\n        CustomApproval(msg.sender,_spender,_amount);\n        return true;\n    }\n}",
  "sourcePath": "/Users/mac/codes/token_wallets/contracts/MyToken.sol",
  "compiler": {
    "name": "solc",
    "version": "0.8.2+commit.661d1103.Emscripten.clang"
  },
  "schemaVersion": "3.3.4",
  "updatedAt": "2021-05-16T10:03:48.410Z",
  "networkType": "ethereum",
  "devdoc": {
    "kind": "dev",
    "methods": {
      "allowance(address,address)": {
        "details": "See {IERC20-allowance}."
      },
      "balanceOf(address)": {
        "details": "See {IERC20-balanceOf}."
      },
      "decimals()": {
        "details": "Returns the number of decimals used to get its user representation. For example, if `decimals` equals `2`, a balance of `505` tokens should be displayed to a user as `5,05` (`505 / 10 ** 2`). Tokens usually opt for a value of 18, imitating the relationship between Ether and Wei. This is the value {ERC20} uses, unless this function is overloaded; NOTE: This information is only used for _display_ purposes: it in no way affects any of the arithmetic of the contract, including {IERC20-balanceOf} and {IERC20-transfer}."
      },
      "decreaseAllowance(address,uint256)": {
        "details": "Atomically decreases the allowance granted to `spender` by the caller. This is an alternative to {approve} that can be used as a mitigation for problems described in {IERC20-approve}. Emits an {Approval} event indicating the updated allowance. Requirements: - `spender` cannot be the zero address. - `spender` must have allowance for the caller of at least `subtractedValue`."
      },
      "increaseAllowance(address,uint256)": {
        "details": "Atomically increases the allowance granted to `spender` by the caller. This is an alternative to {approve} that can be used as a mitigation for problems described in {IERC20-approve}. Emits an {Approval} event indicating the updated allowance. Requirements: - `spender` cannot be the zero address."
      },
      "name()": {
        "details": "Returns the name of the token."
      },
      "symbol()": {
        "details": "Returns the symbol of the token, usually a shorter version of the name."
      },
      "totalSupply()": {
        "details": "See {IERC20-totalSupply}."
      }
    },
    "version": 1
  },
  "userdoc": {
    "kind": "user",
    "methods": {},
    "version": 1
  }
}